{
  "contractName": "CidStorage",
  "abi": [
    {
      "inputs": [
        {
          "internalType": "string",
          "name": "_cid",
          "type": "string"
        }
      ],
      "name": "storeCid",
      "outputs": [],
      "stateMutability": "nonpayable",
      "type": "function"
    },
    {
      "inputs": [
        {
          "internalType": "address",
          "name": "_account",
          "type": "address"
        }
      ],
      "name": "getCids",
      "outputs": [
        {
          "internalType": "string[]",
          "name": "",
          "type": "string[]"
        }
      ],
      "stateMutability": "view",
      "type": "function"
    }
  ],
  "bytecode": "0x608060405234801561001057600080fd5b506106ec806100206000396000f3fe608060405234801561001057600080fd5b50600436106100365760003560e01c8063520c36731461003b578063ed756fde14610057575b600080fd5b61005560048036038101906100509190610416565b610087565b005b610071600480360381019061006c91906104bd565b610102565b60405161007e9190610634565b60405180910390f35b6000803373ffffffffffffffffffffffffffffffffffffffff1673ffffffffffffffffffffffffffffffffffffffff168152602001908152602001600020819080600181540180825580915050600190039060005260206000200160009091909190915090805190602001906100fe929190610219565b5050565b60606000808373ffffffffffffffffffffffffffffffffffffffff1673ffffffffffffffffffffffffffffffffffffffff168152602001908152602001600020805480602002602001604051908101604052809291908181526020016000905b8282101561020e57838290600052602060002001805461018190610685565b80601f01602080910402602001604051908101604052809291908181526020018280546101ad90610685565b80156101fa5780601f106101cf576101008083540402835291602001916101fa565b820191906000526020600020905b8154815290600101906020018083116101dd57829003601f168201915b505050505081526020019060010190610162565b505050509050919050565b82805461022590610685565b90600052602060002090601f016020900481019282610247576000855561028e565b82601f1061026057805160ff191683800117855561028e565b8280016001018555821561028e579182015b8281111561028d578251825591602001919060010190610272565b5b50905061029b919061029f565b5090565b5b808211156102b85760008160009055506001016102a0565b5090565b6000604051905090565b600080fd5b600080fd5b600080fd5b600080fd5b6000601f19601f8301169050919050565b7f4e487b7100000000000000000000000000000000000000000000000000000000600052604160045260246000fd5b610323826102da565b810181811067ffffffffffffffff82111715610342576103416102eb565b5b80604052505050565b60006103556102bc565b9050610361828261031a565b919050565b600067ffffffffffffffff821115610381576103806102eb565b5b61038a826102da565b9050602081019050919050565b82818337600083830152505050565b60006103b96103b484610366565b61034b565b9050828152602081018484840111156103d5576103d46102d5565b5b6103e0848285610397565b509392505050565b600082601f8301126103fd576103fc6102d0565b5b813561040d8482602086016103a6565b91505092915050565b60006020828403121561042c5761042b6102c6565b5b600082013567ffffffffffffffff81111561044a576104496102cb565b5b610456848285016103e8565b91505092915050565b600073ffffffffffffffffffffffffffffffffffffffff82169050919050565b600061048a8261045f565b9050919050565b61049a8161047f565b81146104a557600080fd5b50565b6000813590506104b781610491565b92915050565b6000602082840312156104d3576104d26102c6565b5b60006104e1848285016104a8565b91505092915050565b600081519050919050565b600082825260208201905092915050565b6000819050602082019050919050565b600081519050919050565b600082825260208201905092915050565b60005b83811015610550578082015181840152602081019050610535565b8381111561055f576000848401525b50505050565b600061057082610516565b61057a8185610521565b935061058a818560208601610532565b610593816102da565b840191505092915050565b60006105aa8383610565565b905092915050565b6000602082019050919050565b60006105ca826104ea565b6105d481856104f5565b9350836020820285016105e685610506565b8060005b858110156106225784840389528151610603858261059e565b945061060e836105b2565b925060208a019950506001810190506105ea565b50829750879550505050505092915050565b6000602082019050818103600083015261064e81846105bf565b905092915050565b7f4e487b7100000000000000000000000000000000000000000000000000000000600052602260045260246000fd5b6000600282049050600182168061069d57607f821691505b6020821081036106b0576106af610656565b5b5091905056fea264697066735822122080ca15fe3d7ec5c25e03ea6ad36df58fbf4d26c6a77070edf1921556d6b03b6764736f6c634300080e0033",
  "immutableReferences": {},
  "source": "pragma solidity ^0.8.0;\n\ncontract CidStorage {\n\n    mapping(address => string[]) cids;\n\n    function storeCid(string memory _cid) public {\n        cids[msg.sender].push(_cid);\n    }\n\n    function getCids(address _account) public view returns (string[] memory) {\n        return cids[_account];\n    }\n}\n",
  "sourcePath": "/Users/mahbodmajid/WebstormProjects/basic-webpack/contracts/CidStorage.sol",
  "compiler": {
    "name": "solc",
    "version": "0.8.14+commit.80d49f37.Emscripten.clang"
  },
  "schemaVersion": "3.4.7",
  "updatedAt": "2022-06-04T11:39:07.098Z",
  "devdoc": {
    "kind": "dev",
    "methods": {},
    "version": 1
  },
  "userdoc": {
    "kind": "user",
    "methods": {},
    "version": 1
  }
}