{
  "contractName": "CidStorage",
  "abi": [
    {
      "inputs": [
        {
          "internalType": "string",
          "name": "_cid",
          "type": "string"
        }
      ],
      "name": "storeCid",
      "outputs": [],
      "stateMutability": "nonpayable",
      "type": "function"
    },
    {
      "inputs": [
        {
          "internalType": "address",
          "name": "_account",
          "type": "address"
        }
      ],
      "name": "getCids",
      "outputs": [
        {
          "internalType": "string[]",
          "name": "",
          "type": "string[]"
        }
      ],
      "stateMutability": "view",
      "type": "function",
      "constant": true
    }
  ],
  "bytecode": "0x608060405234801561001057600080fd5b5061069f806100206000396000f3fe608060405234801561001057600080fd5b50600436106100365760003560e01c8063520c36731461003b578063ed756fde14610057575b600080fd5b61005560048036038101906100509190610362565b610087565b005b610071600480360381019061006c9190610339565b610102565b60405161007e9190610465565b60405180910390f35b6000803373ffffffffffffffffffffffffffffffffffffffff1673ffffffffffffffffffffffffffffffffffffffff168152602001908152602001600020819080600181540180825580915050600190039060005260206000200160009091909190915090805190602001906100fe929190610219565b5050565b60606000808373ffffffffffffffffffffffffffffffffffffffff1673ffffffffffffffffffffffffffffffffffffffff168152602001908152602001600020805480602002602001604051908101604052809291908181526020016000905b8282101561020e578382906000526020600020018054610181906105b1565b80601f01602080910402602001604051908101604052809291908181526020018280546101ad906105b1565b80156101fa5780601f106101cf576101008083540402835291602001916101fa565b820191906000526020600020905b8154815290600101906020018083116101dd57829003601f168201915b505050505081526020019060010190610162565b505050509050919050565b828054610225906105b1565b90600052602060002090601f016020900481019282610247576000855561028e565b82601f1061026057805160ff191683800117855561028e565b8280016001018555821561028e579182015b8281111561028d578251825591602001919060010190610272565b5b50905061029b919061029f565b5090565b5b808211156102b85760008160009055506001016102a0565b5090565b60006102cf6102ca846104b8565b610487565b9050828152602081018484840111156102e757600080fd5b6102f284828561056f565b509392505050565b60008135905061030981610652565b92915050565b600082601f83011261032057600080fd5b81356103308482602086016102bc565b91505092915050565b60006020828403121561034b57600080fd5b6000610359848285016102fa565b91505092915050565b60006020828403121561037457600080fd5b600082013567ffffffffffffffff81111561038e57600080fd5b61039a8482850161030f565b91505092915050565b60006103af838361042c565b905092915050565b60006103c2826104f8565b6103cc818561051b565b9350836020820285016103de856104e8565b8060005b8581101561041a57848403895281516103fb85826103a3565b94506104068361050e565b925060208a019950506001810190506103e2565b50829750879550505050505092915050565b600061043782610503565b610441818561052c565b935061045181856020860161057e565b61045a81610641565b840191505092915050565b6000602082019050818103600083015261047f81846103b7565b905092915050565b6000604051905081810181811067ffffffffffffffff821117156104ae576104ad610612565b5b8060405250919050565b600067ffffffffffffffff8211156104d3576104d2610612565b5b601f19601f8301169050602081019050919050565b6000819050602082019050919050565b600081519050919050565b600081519050919050565b6000602082019050919050565b600082825260208201905092915050565b600082825260208201905092915050565b60006105488261054f565b9050919050565b600073ffffffffffffffffffffffffffffffffffffffff82169050919050565b82818337600083830152505050565b60005b8381101561059c578082015181840152602081019050610581565b838111156105ab576000848401525b50505050565b600060028204905060018216806105c957607f821691505b602082108114156105dd576105dc6105e3565b5b50919050565b7f4e487b7100000000000000000000000000000000000000000000000000000000600052602260045260246000fd5b7f4e487b7100000000000000000000000000000000000000000000000000000000600052604160045260246000fd5b6000601f19601f8301169050919050565b61065b8161053d565b811461066657600080fd5b5056fea2646970667358221220d59df51353674b52ac25bcb2db42ef5693b963fc5dfcfce129e3e4ca4f7a85c064736f6c63430008000033",
  "immutableReferences": {},
  "source": "pragma solidity ^0.8.0;\n\ncontract CidStorage {\n\n    mapping(address => string[]) cids;\n\n    function storeCid(string memory _cid) public {\n        cids[msg.sender].push(_cid);\n    }\n\n    function getCids(address _account) public view returns (string[] memory) {\n        return cids[_account];\n    }\n}\n",
  "sourcePath": "/Users/mahbodmajid/WebstormProjects/basic-webpack/contracts/CidStorage.sol",
  "compiler": {
    "name": "solc",
    "version": "0.8.0+commit.c7dfd78e.Emscripten.clang"
  },
  "schemaVersion": "3.4.7",
  "updatedAt": "2022-06-04T12:11:19.379Z",
  "networkType": "ethereum",
  "devdoc": {
    "kind": "dev",
    "methods": {},
    "version": 1
  },
  "userdoc": {
    "kind": "user",
    "methods": {},
    "version": 1
  }
}